S0150000414B5F53445F726561644D42522E73726563B1
S11300000C9434000C9451000C9451000C94510045
S11300100C9451000C9451000C9451000C94510018
S11300200C9451000C9451000C9451000C94510008
S11300300C9451000C9451000C9451000C945100F8
S11300400C9451000C9451000C9451000C945100E8
S11300500C9451000C9451000C9451000C945100D8
S11300600C9451000C94510011241FBECFEFD8E022
S1130070DEBFCDBF11E0A0E0B1E0EEE4F5E002C0E8
S113008005900D92AA34B107D9F721E0AAE4B1E0B2
S113009001C01D92AB34B207E1F70E9406020C9432
S11300A0A5020C9400008CE284B983E58CBD08950C
S11300B08EBD0DB407FEFDCF8EB508958FEF0E945F
S11300C058000895FF920F931F93CF93DF93C82F87
S11300D0D42F152F062FF72E88234CF440E050E040
S11300E0BA0187E70E946200823040F5CF772A9AEE
S11300F00E945E002A980E945E008C2F0E94580085
S11301008F2D0E945800802F0E945800812F0E943A
S113011058008D2F0E945800C03421F0C83421F4B7
S113012087E803C085E901C081E00E945800CAE065
S11301300E945E00882314F4C150D1F7DF91CF915F
S11301401F910F91FF9008952A9A0E945E000895CE
S1130150CF92DF92EF92FF920F931F93CF93DF938F
S113016000D000D0CDB7DEB70E94530014E60E9441
S11301705E001150E1F740E050E0BA0180E40E94D3
S11301806200813009F07DC04AEA51E060E070E02D
S113019088E40E946200813009F042C0CE010196D9
S11301A07C016E0195E0C90ED11C87010E945E009E
S11301B0F80181938F01EC15FD05C1F78B81813026
S11301C009F061C08C818A3A31F0F12C6CC0015085
S11301D0110919F45AC000EE1EE240E050E060E05C
S11301E070E489EE0E9462008111F1CF012B09F4C1
S11301F04EC040E050E0BA018AE70E9462008111DB
S113020048C00E945E00F70181937F01EC15FD0553
S1130210C1F7898186FD3FC06894FF24F2F843C08A
S113022040E050E0BA0189EE0E946200823038F06A
S1130230FF24F3940F2EF1E4EF2EF02D07C0689401
S1130240FF24F1F80F2EF9EEEF2EF02D08EA11E657
S113025003C00150110921F140E050E0BA018E2D94
S11302600E9462008111F5CF012BE1F040E052E0E1
S113027060E070E080E50E9462008823A1F0F12C28
S113028012C0F12C10C0F12C0EC0F12C0CC0F12CBA
S11302900AC0F12C08C00F2EFCE0FF2EF02D03C085
S11302A0F12C01C0F12CF0924A010E94A40081E0DB
S11302B0F11080E00F900F900F900F90DF91CF918D
S11302C01F910F91FF90EF90DF90CF900895CF9200
S11302D0DF92EF92FF920F931F93CF93DF937C01F2
S11302E0690180914A0183FD09C0032E39E0440F5E
S11302F0551F661F771F3A95D1F7302D81E50E946F
S1130300620081112CC0C0E3D5E70E945E008F3FDC
S113031021F42197D1F7C1E025C08E3F11F5C2E049
S1130320D2E0C01BD10BCC19DD09C114D10431F0CA
S11303300E945E0081E0C81AD108D1F7E114F104EB
S113034041F00E945E00F70181937F010150110981
S1130350C1F70E945E002197E1F7C0E003C0C1E04D
S113036001C0C1E00E94A4008C2FDF91CF911F91A6
S11303700F91FF90EF90DF90CF9008951092C500F9
S113038087E68093C400E0ECF0E080818D7F808379
S113039088E18093C10086E08093C2000895E0EC78
S11303A0F0E0908195FFFDCF8093C60008950F93F0
S11303B01F93CF93FC018081882359F08F01C0E003
S11303C00E94CF01CF5FF801EC0FF11D80818111F4
S11303D0F7CFCF911F910F9108950F931F93CF9350
S11303E08C01FC018081882351F0C0E00E94CF0180
S11303F0CF5FF801EC0FF11D80818111F7CF8AE006
S11304000E94CF01CF911F910F910895CF93DF9355
S1130410CDB7DEB7C255D1090FB6F894DEBF0FBE13
S1130420CDBF0E94BE0190E080E80FB6F89480939F
S11304306100909361000FBE0E94A800182F8130C4
S113044029F480E091E00E94ED014BC0823029F450
S113045085E191E00E94ED0144C084E291E00E94B4
S1130460ED012FEF81EE94E0215080409040E1F7C0
S113047000C000001111E0CF7E01E3E5EE0EF11C97
S113048085E391E00E94ED0102E410E02EEB31E0FF
S113049040E050E0BA01CE0141960E9467018E010E
S11304A00F5E1F4FF80181918F0140E1BE016F5F24
S11304B07F4F90E00E947B02CE0101960E94D701FB
S11304C087E491E00E94D7010E151F0559F7FFEF4D
S11304D023ED80E3F15020408040E1F700C00000AC
S11304E0CFCF9FEFE1EEF4E09150E040F040E1F730
S11304F000C00000A1CFBB27FB015527AA27880F06
S1130500991FAA1FA41710F0A41B83955051B9F783
S1130510A05DAA3308F0A95DA193009779F7B11102
S1130520B1931192CB010C949502DC01FC01672F6D
S113053071917723E1F7329704C07C916D937083B6
S11105406291AE17BF07C8F30895F894FFCF79
S113054E43617264206E6F7420696E697469616CA4
S113055E697A65640043617264206E6F7420666FFD
S113056E756E64004361726420696E697469616CAE
S113057E697A6564003D3D3D206D61696E206C6F46
S10D058E6F70203D3D3D0020000089
S9030000FC
