S0180000414B5F53445F7066665F746573745F312E7372656340
S11300000C9434000C9451000C9451000C94510045
S11300100C9451000C9451000C9451000C94510018
S11300200C9451000C9451000C9451000C94510008
S11300300C9451000C9451000C9451000C945100F8
S11300400C9451000C9451000C9451000C945100E8
S11300500C9451000C9451000C9451000C945100D8
S11300600C9451000C94510011241FBECFEFD8E022
S1130070DEBFCDBF11E0A0E0B1E0EEE5FFE002C0DD
S113008005900D92A638B107D9F721E0A6E8B1E0B2
S113009001C01D92A938B207E1F70E94B0060C9482
S11300A0AD070C9400008CE284B983E58CBD0895FF
S11300B08EBD0DB407FEFDCF8EB508958FEF0E945F
S11300C058000895FF920F931F93CF93DF93C82F87
S11300D0D42F152F062FF72E88234CF440E050E040
S11300E0BA0187E70E946200823040F5CF772A9AEE
S11300F00E945E002A980E945E008C2F0E94580085
S11301008F2D0E945800802F0E945800812F0E943A
S113011058008D2F0E945800C03421F0C83421F4B7
S113012087E803C085E901C081E00E945800CAE065
S11301300E945E00882314F4C150D1F7DF91CF915F
S11301401F910F91FF9008952A9A0E945E000895CE
S1130150CF92DF92EF92FF920F931F93CF93DF938F
S113016000D000D0CDB7DEB70E94530014E60E9441
S11301705E001150E1F740E050E0BA0180E40E94D3
S11301806200813009F07DC04AEA51E060E070E02D
S113019088E40E946200813009F042C0CE010196D9
S11301A07C016E0195E0C90ED11C87010E945E009E
S11301B0F80181938F01EC15FD05C1F78B81813026
S11301C009F061C08C818A3A31F0F12C6CC0015085
S11301D0110919F45AC000EE1EE240E050E060E05C
S11301E070E489EE0E9462008111F1CF012B09F4C1
S11301F04EC040E050E0BA018AE70E9462008111DB
S113020048C00E945E00F70181937F01EC15FD0553
S1130210C1F7898186FD3FC06894FF24F2F843C08A
S113022040E050E0BA0189EE0E946200823038F06A
S1130230FF24F3940F2EF1E4EF2EF02D07C0689401
S1130240FF24F1F80F2EF9EEEF2EF02D08EA11E657
S113025003C00150110921F140E050E0BA018E2D94
S11302600E9462008111F5CF012BE1F040E052E0E1
S113027060E070E080E50E9462008823A1F0F12C28
S113028012C0F12C10C0F12C0EC0F12C0CC0F12CBA
S11302900AC0F12C08C00F2EFCE0FF2EF02D03C085
S11302A0F12C01C0F12CF09286010E94A40081E09F
S11302B0F11080E00F900F900F900F90DF91CF918D
S11302C01F910F91FF90EF90DF90CF900895CF9200
S11302D0DF92EF92FF920F931F93CF93DF937C01F2
S11302E069018091860183FD09C0032E39E0440F22
S11302F0551F661F771F3A95D1F7302D81E50E946F
S11303006200811134C0C0E3D5E70E945E008F3FD4
S113031021F42197D1F7C1E02DC08E3F51F5C2E001
S1130320D2E0C01BD10BCC19DD09C114D10431F0CA
S11303300E945E0081E0C81AD108D1F7E114F104EB
S113034049F00E945E00F70181937F010150110979
S1130350C1F707C00E945E000E947906015011098E
S1130360C9F70E945E002197E1F7C0E003C0C1E035
S113037001C0C1E00E94A4008C2FDF91CF911F9196
S11303800F91FF90EF90DF90CF9008950F931F93FC
S1130390E0918701F09188019C0122503109468146
S11303A05781425051092417350768F4A281B0E0FF
S11303B00E9469070089118922893389600F711F9E
S11303C0821F931F03C060E070E0CB011F910F9167
S11303D00895CF93DF93FC01A0918701B091880128
S11303E0118210828481958181309105D9F016960D
S11303F02D913C91179782179307B0F4EF019783DF
S11304008683009719F00E94C60106C01C966D9160
S11304107D918D919C911F97688779878A879B87A7
S113042080E003C081E001C081E0DF91CF910895B5
S1130430CF92DF92EF92FF920F931F93CF93DF93AC
S1130440EC016A017B0102E010E02EEF31E00E9432
S1130450670181111EC0898190E0982F8827288127
S1130460822B85359A4AB9F426E330E0B701A60118
S1130470CE010E946701811110C0298130E0322F22
S113048022278881282B81E02634314439F480E006
S113049005C083E003C082E001C081E0DF91CF9119
S11304A01F910F91FF90EF90DF90CF9008950F93DD
S11304B01F93CF93DF9300D000D0CDB7DEB7E09188
S11304C08701F09188018230910528F126813781D6
S11304D08217930718F52081223019F59C013327E0
S11304E0220F331F892F9927408551856285738593
S11304F0480F591F611D711D02E010E0CE010196E5
S11305000E946701811110C08A8190E0982F88278A
S11305102981822B0BC081E090E008C081E090E04B
S113052005C081E090E002C081E090E00F900F9060
S11305300F900F90DF91CF911F910F9108954F92DB
S11305405F926F927F928F929F92AF92BF92EF923F
S1130550FF920F931F93CF93DF93CDB7DEB7A89786
S11305600FB6F894DEBF0FBECDBF7C011092880198
S1130570109287010E94A80080FDF5C040E050E081
S1130580BA01CE0101960E941802813089F500E17A
S113059010E02EEB31E040E050E0BA01CE010196CC
S11305A00E9467018111E1C08D81882309F4DFC0B5
S11305B08C858B84912CA12CB12C540199248824F2
S11305C0B82A8985A5019401282BDA01C9018A84F6
S11305D0912C982C8824A12CB12C882A992AAA2AF7
S11305E0BB2AB501A401CE0101960E94180203C0E2
S11305F0812C912C5401833009F4BBC08111BBC000
S113060004E210E02DE030E0B501A401CE01019632
S11306100E9467018111B1C02B8530E0322F22275F
S11306208A85282B40E050E021153105410551050C
S1130630C1F48B8D2A8D422F50E060E070E0BA0146
S113064055274427782B888D482B898D90E0982F47
S11306508827A0E0B0E09A01AB01282B392B4A2B64
S11306605B2BAC81B0E00E9478076DA37EA38FA3BF
S113067098A78B8190E0982F88272A81822BAC0140
S113068060E070E0840E951EA61EB71ED701189672
S11306908D929D92AD92BC921B97198112961C93D8
S11306A01297EE81F0E0FE2FEE278D81E82B159650
S11306B0FC93EE931497888590E0982F88272F81D8
S11306C0822BA0E0B0E00097A105B105B1F42F8919
S11306D08E8990E0A0E0B0E0DC0199278827B22B56
S11306E02C89822B2D8930E0322F22272901612C7D
S11306F0712C84299529A629B729F295E295EF70E2
S1130700EF27FF70EF272F01612C712C841B950BB1
S1130710A60BB70B2DA13EA14FA158A5821B930B8D
S1130720A40BB50BBC01CD016419750986099709A1
S1130730212F30E040E050E00E944707DA01C90170
S11307400296A11DB11DF70197838683DA01C901C1
S1130750865F9F40A109B1098F3F9F4EA105B10556
S113076070F086E02CC082E02AC081E028C086E0D8
S113077026C081E024C086E022C081E020C082E05F
S1130780D7018C932DA13EA14FA158A5820E931E93
S1130790A41EB51E1C968D929D92AD92BC921F977D
S11307A0840C951CA61CB71CF701808A918AA28A26
S11307B0B38A1182F0928801E092870180E0A896C2
S11307C00FB6F894DEBF0FBECDBFDF91CF911F915E
S11307D00F91FF90EF90BF90AF909F908F907F907C
S11307E06F905F904F9008952F923F924F925F9237
S11307F06F927F928F929F92AF92BF92CF92DF922D
S1130800EF92FF920F931F93CF93DF93CDB7DEB791
S1130810E8970FB6F894DEBF0FBECDBF6C01A09071
S11308208701B0908801A114B10409F42FC1F50126
S11308301182CE010D969C838B83F60180818032D8
S113084029F431966F0181918032E1F38F3219F4EA
S1130850FFEFCF1ADF0A1E821D82F60180818032EB
S113086038F4CE0101960E94E901982F198EDAC05E
S11308706894FF24F5F8612C6894442443F8342CDC
S11308800F2EFBE02F2EF02D55245394E52C762CBF
S1130890AB81BC81FD01CD010B96F192E817F907FC
S11308A0E1F7962D862D342D01C0822F21E0280FEB
S11308B0F601E80FF11D8081813268F08F3259F022
S11308C08E3209F4EBC0931730F4FD01E90FF11DEA
S11308D080839F5FEACFC20ED11C952D813208F030
S11308E0962D1B969C93CE0101960E94E901982FA8
S11308F0811198C029813A812F703327220F331F29
S113090022953295307F3227207F322749855A85B8
S11309106B857C8500E210E0CE0149960E94670158
S11309209E2D811101C0972D91117CC0898D882342
S113093009F4C4C06CA163FD11C04B815C81DE016C
S11309405996FA019A01255F3F4F04C0E217F30755
S113095009F459C09D9181919817C1F38090870142
S11309609090880109811A810F5F1F4F09F49CC080
S113097049855A856B857C8541155105610571054D
S113098009F494C0C8018F709927892BC9F54F5F6A
S11309905F4F6F4F7F4F49875A876B877C878F8163
S11309A09885009741F4F40184819581081719070B
S11309B008F07EC025C0F401228130E021503109C5
S11309C0A801529542954F7045275F70452724230F
S11309D03523232BA9F40E9457028230910508F491
S11309E069C0F401268137818217930708F064C037
S11309F098878F830E94C60169877A878B879C8733
S1130A001A83098377CFFA01838581110DC064FFAE
S1130A1057C08CA990E0982F88272BA9822B9E83FE
S1130A208D8336CF911134C0898D882399F18CA19F
S1130A3084FD32C08CA990E0982F88272BA9822BA3
S1130A40F501958F848F28AD8FA990E0A0E0B0E0E8
S1130A50DC0199278827B22B2DA9AC01BD01422BBB
S1130A602EA930E0922F8827A0E0B0E0842B952BAC
S1130A70A62BB72B808F918FA28FB38F148A158AE0
S1130A80168A178A81E0818380E01BC085E019C043
S1130A90892F17C083E015C083E013C0383009F0F4
S1130AA01ACF932D322D01CF83E00BC083E009C010
S1130AB083E007C081E005C083E003C093E0B2CFC8
S1130AC083E0E8960FB6F894DEBF0FBECDBFDF918A
S1130AD0CF911F910F91FF90EF90DF90CF90BF9037
S1130AE0AF909F908F907F906F905F904F903F90CA
S1130AF02F9008952F923F924F925F926F927F9220
S1130B008F929F92AF92BF92CF92DF92EF92FF9219
S1130B100F931F93CF93DF932C016B013A01E09065
S1130B208701F0908801FA0111821082E114F10426
S1130B3009F4B6C0F701818180FFB4C0808D918D26
S1130B40A28DB38D4489558966897789841B950B59
S1130B50A60BB70BA60160E070E084179507A60703
S1130B60B70708F46C01C114D10409F49DC0520103
S1130B70812C6894992491F8312C212CF7018489D3
S1130B809589A689B789AC01BD015170662777277D
S1130B90452B462B472B09F03EC0C281C150AC0106
S1130BA0BD01032E39E076956795579547953A959B
S1130BB0D1F7302DC423B1F4892B8A2B8B2B19F454
S1130BC0848D958D05C0F701868D978D0E945702FF
S1130BD08230910520F4F701118281E066C0F701AB
S1130BE0978F868FF701868D978D0E94C6016115B8
S1130BF071058105910521F4F701118281E055C049
S1130C00DC01CB018C0F911DA11DB11DF70180A347
S1130C1091A3A2A3B3A3F70144895589668977896F
S1130C20CA0191709401281B390BE6012C153D056E
S1130C3008F4E9019A013170F70140A151A162A1C0
S1130C4073A14114510419F08A2D9B2D02C0832DE8
S1130C50922D8E010E946701882321F0F7011182F1
S1130C6081E023C0F70184899589A689B7898C0F0F
S1130C709D1FA11DB11D848B958BA68BB78BAC0ECC
S1130C80BD1ECC1ADD0AF30180819181C80FD91FE2
S1130C90D183C083C114D10409F070CF80E005C0B2
S1130CA085E003C084E001C080E0DF91CF911F9113
S1130CB00F91FF90EF90DF90CF90BF90AF909F90F7
S1130CC08F907F906F905F904F903F902F900895FA
S1130CD01092C50087E68093C400E0ECF0E08081C8
S1130CE08D7F808388E18093C10086E08093C20079
S1130CF00895E0ECF0E0908195FFFDCF8093C6006D
S1130D0008950F931F93CF93FC018081882359F09A
S1130D108F01C0E00E947906CF5FF801EC0FF11D4E
S1130D2080818111F7CFCF911F910F9108950F9377
S1130D301F93CF938C01FC018081882351F0C0E084
S1130D400E947906CF5FF801EC0FF11D80818111BB
S1130D50F7CF8AE00E947906CF911F910F910895F1
S1130D60CF93DF93CDB7DEB7C254D1090FB6F89451
S1130D70DEBF0FBECDBF8CE0EAE7F1E0DE01D59621
S1130D8001900D928A95E1F70E94680690E080E850
S1130D900FB6F89480936100909361000FBECE016A
S1130DA041960E949F02882329F080E091E00E94EE
S1130DB09706FFCF8BE191E00E9481064AE0BE01D5
S1130DC06F5F7F4F80E090E00E948307CE01019621
S1130DD00E949706CE01C5960E94F403882329F049
S1130DE083E291E00E949706FFCF8DE391E00E9499
S1130DF081064AE0BE016F5F7F4F80E090E00E9471
S1130E008307CE0101960E94970623961FAE1EAE5D
S1130E10239788E491E00E948106AE014F5B5F4F07
S1130E2060E072E080E090E00E947A05811107C0E2
S1130E3023968EAD9FAD23978115924070F78FE670
S1130E4091E00E94970687E591E00E9497064AE0A8
S1130E50BE016F5F7F4F23968EAD9FAD23970E9497
S1130E60830783E691E00E948106CE0101960E94E9
S1130E70970680E791E00E9497068FEF93ED20E3B9
S1130E80815090402040E1F700C00000F2CFA1E281
S1130E901A2EAA1BBB1BFD010DC0AA1FBB1FEE1FF0
S1130EA0FF1FA217B307E407F50720F0A21BB30B3B
S1130EB0E40BF50B661F771F881F991F1A9469F7B7
S1130EC060957095809590959B01AC01BD01CF0113
S1130ED00895A29FB001B39FC001A39F700D811D0F
S1130EE01124911DB29F700D811D1124911D08952F
S1130EF00E946907A59F900DB49F900DA49F800D3B
S1130F00911D11240895BB27FB015527AA27880F9B
S1130F10991FAA1FA41710F0A41B83955051B9F769
S1130F20A05DAA3308F0A95DA193009779F7B111E8
S1130F30B1931192CB010C949D07DC01FC01672F46
S1130F4071917723E1F7329704C07C916D9370839C
S1110F506291AE17BF07C8F30895F894FFCF5F
S1130F5E4572726F72206D6F756E74696E67207450
S1130F6E68652053442063617264004D6F756E741E
S1130F7E3A20004572726F72206372656174696EF5
S1130F8E672061206E65772066696C65004E657713
S1130F9E2046696C653A200046696C6520436F6E85
S1130FAE74656E743A2000454F462052656163683D
S1130FBE656400427974657320726561643A200039
S1130FCE6D61696E206C6F6F7000444154414C4FDB
S1090FDE472E5458540094
S9030000FC
