S01D0000414B5F53445F67657453616D706C696E6754696D652E737265631C
S11300000C9434000C9451000C9451000C94510045
S11300100C9451000C9451000C9451000C94510018
S11300200C9451000C9451000C9451000C94510008
S11300300C9451000C9451000C9433070C9451000F
S11300400C9451000C9451000C9451000C945100E8
S11300500C9451000C9451000C9451000C945100D8
S11300600C9451000C94510011241FBECFEFD8E022
S1130070DEBFCDBF11E0A0E0B1E0E6EFF0E102C0E9
S113008005900D92A835B107D9F721E0A8E5B1E0B4
S113009001C01D92A536B207E1F70E948A070C94AD
S11300A079080C9400008CE284B980E58CBD089535
S11300B08EBD0DB407FEFDCF8EB508958FEF0E945F
S11300C058000895FF920F931F93CF93DF93C82F87
S11300D0D42F152F062FF72E88234CF440E050E040
S11300E0BA0187E70E946200823040F5CF772A9AEE
S11300F00E945E002A980E945E008C2F0E94580085
S11301008F2D0E945800802F0E945800812F0E943A
S113011058008D2F0E945800C03421F0C83421F4B7
S113012087E803C085E901C081E00E945800CAE065
S11301300E945E00882314F4C150D1F7DF91CF915F
S11301401F910F91FF9008952A9A0E945E000895CE
S1130150CF92DF92EF92FF920F931F93CF93DF938F
S113016000D000D0CDB7DEB70E94530014E60E9441
S11301705E001150E1F740E050E0BA0180E40E94D3
S11301806200813009F07DC04AEA51E060E070E02D
S113019088E40E946200813009F042C0CE010196D9
S11301A07C016E0195E0C90ED11C87010E945E009E
S11301B0F80181938F01EC15FD05C1F78B81813026
S11301C009F061C08C818A3A31F0F12C6CC0015085
S11301D0110919F45AC000EE1EE240E050E060E05C
S11301E070E489EE0E9462008111F1CF012B09F4C1
S11301F04EC040E050E0BA018AE70E9462008111DB
S113020048C00E945E00F70181937F01EC15FD0553
S1130210C1F7898186FD3FC06894FF24F2F843C08A
S113022040E050E0BA0189EE0E946200823038F06A
S1130230FF24F3940F2EF1E4EF2EF02D07C0689401
S1130240FF24F1F80F2EF9EEEF2EF02D08EA11E657
S113025003C00150110921F140E050E0BA018E2D94
S11302600E9462008111F5CF012BE1F040E052E0E1
S113027060E070E080E50E9462008823A1F0F12C28
S113028012C0F12C10C0F12C0EC0F12C0CC0F12CBA
S11302900AC0F12C08C00F2EFCE0FF2EF02D03C085
S11302A0F12C01C0F12CF0925A010E94A40081E0CB
S11302B0F11080E00F900F900F900F90DF91CF918D
S11302C01F910F91FF90EF90DF90CF900895CF9200
S11302D0DF92EF92FF920F931F93CF93DF937C01F2
S11302E0690180915A0183FD09C0032E39E0440F4E
S11302F0551F661F771F3A95D1F7302D81E50E946F
S11303006200811134C0C0E3D5E70E945E008F3FD4
S113031021F42197D1F7C1E02DC08E3F51F5C2E001
S1130320D2E0C01BD10BCC19DD09C114D10431F0CA
S11303300E945E0081E0C81AD108D1F7E114F104EB
S113034049F00E945E00F70181937F010150110979
S1130350C1F707C00E945E000E946907015011099D
S1130360C9F70E945E002197E1F7C0E003C0C1E035
S113037001C0C1E00E94A4008C2FDF91CF911F9196
S11303800F91FF90EF90DF90CF900895EF92FF923E
S11303900F931F93CF93DF930097F1F08A01452BBE
S11303A009F46AC0C0915801D0915901209709F409
S11303B065C07C01F70181917F010E94580021975B
S11303C0D0935901C09358010150110909F458C040
S11303D0209781F7C0E057C04115510561057105AB
S11303E001F180915A0183FD09C0032E39E0440FC5
S11303F0551F661F771F3A95D1F7302D88E50E9467
S1130400620081113FC08FEF0E9458008EEF0E945E
S1130410580080E092E09093590180935801C0E025
S113042032C0C0915801D0915901CE3FFFEFDF0790
S113043011F408C0EC0180E00E945800CE0101973D
S11304402196C1F70E945E008F71853029F0C1E0CA
S113045010C00150110902C008EE1DEF0E945E0099
S11304608F3F19F001151105A1F7C1E0012B09F027
S1130470C0E00E94A40007C0C0E005C0C0E003C003
S1130480C0E001C0C1E08C2FDF91CF911F910F918B
S1130490FF90EF9008950F931F93E0915B01F0910B
S11304A05C019C0122503109468157814250510917
S11304B02417350768F4A281B0E00E941E08008961
S11304C0118922893389600F711F821F931F03C012
S11304D060E070E0CB011F910F910895CF93DF93FB
S11304E0FC01A0915B01B0915C01118210828481B6
S11304F0958181309105D9F016962D913C911797ED
S113050082179307B0F4EF0197838683009719F05D
S11305100E944B0206C01C966D917D918D919C9119
S11305201F97688779878A879B8780E003C081E06B
S113053001C081E0DF91CF910895CF92DF92EF92D5
S1130540FF920F931F93CF93DF93EC016A017B011A
S113055002E010E02EEF31E00E94670181111EC01D
S1130560898190E0982F88272881822B85359A4AA3
S1130570B9F426E330E0B701A601CE010E94670179
S1130580811110C0298130E0322F22278881282B45
S113059081E02634314439F480E005C083E003C0AF
S11305A082E001C081E0DF91CF911F910F91FF9014
S11305B0EF90DF90CF9008950F931F93CF93DF9325
S11305C000D000D0CDB7DEB7E0915B01F0915C01C3
S11305D08230910528F1268137818217930718F517
S11305E02081223019F59C013327220F331F892FD4
S11305F099274085518562857385480F591F611D70
S1130600711D02E010E0CE0101960E946701811184
S113061010C08A8190E0982F88272981822B0BC0F3
S113062081E090E008C081E090E005C081E090E0C6
S113063002C081E090E00F900F900F900F90DF9137
S1130640CF911F910F9108954F925F926F927F9275
S11306508F929F92AF92BF92EF92FF920F931F934C
S1130660CF93DF93CDB7DEB7A8970FB6F894DEBF6C
S11306700FBECDBF7C0110925C0110925B010E9401
S1130680A80080FDF5C040E050E0BA01CE0101961B
S11306900E949D02813089F500E110E02EEB31E0EB
S11306A040E050E0BA01CE0101960E946701811139
S11306B0E1C08D81882309F4DFC08C858B84912C63
S11306C0A12CB12C540199248824B82A8985A50128
S11306D09401282BDA01C9018A84912C982C88244E
S11306E0A12CB12C882A992AAA2ABB2AB501A401D3
S11306F0CE0101960E949D0203C0812C912C5401CD
S1130700833009F4BBC08111BBC004E210E02DE0CA
S113071030E0B501A401CE0101960E946701811168
S1130720B1C02B8530E0322F22278A85282B40E068
S113073050E02115310541055105C1F48B8D2A8DF9
S1130740422F50E060E070E0BA0155274427782B2F
S1130750888D482B898D90E0982F8827A0E0B0E001
S11307609A01AB01282B392B4A2B5B2BAC81B0E0CF
S11307700E942D086DA37EA38FA398A78B8190E080
S1130780982F88272A81822BAC0160E070E0840EC8
S1130790951EA61EB71ED70118968D929D92AD92F6
S11307A0BC921B97198112961C931297EE81F0E06C
S11307B0FE2FEE278D81E82B1596FC93EE9314976C
S11307C0888590E0982F88272F81822BA0E0B0E0C5
S11307D00097A105B105B1F42F898E8990E0A0E0BE
S11307E0B0E0DC0199278827B22B2C89822B2D8934
S11307F030E0322F22272901612C712C842995297C
S1130800A629B729F295E295EF70EF27FF70EF273D
S11308102F01612C712C841B950BA60BB70B2DA1FA
S11308203EA14FA158A5821B930BA40BB50BBC0191
S1130830CD016419750986099709212F30E040E03C
S113084050E00E94FC07DA01C9010296A11DB11D06
S1130850F70197838683DA01C901865F9F40A10966
S1130860B1098F3F9F4EA105B10570F086E02CC001
S113087082E02AC081E028C086E026C081E024C04E
S113088086E022C081E020C082E0D7018C932DA1B4
S11308903EA14FA158A5820E931EA41EB51E1C9600
S11308A08D929D92AD92BC921F97840C951CA61CB0
S11308B0B71CF701808A918AA28AB38A1182F092C6
S11308C05C01E0925B0180E0A8960FB6F894DEBF6D
S11308D00FBECDBFDF91CF911F910F91FF90EF908D
S11308E0BF90AF909F908F907F906F905F904F904C
S11308F008952F923F924F925F926F927F928F92C0
S11309009F92AF92BF92CF92DF92EF92FF920F939A
S11309101F93CF93DF93CDB7DEB7E8970FB6F89464
S1130920DEBF0FBECDBF6C01A0905B01B0905C0137
S1130930A114B10409F42FC1F5011182CE010D9661
S11309409C838B83F6018081803229F431966F0178
S113095081918032E1F38F3219F4FFEFCF1ADF0A6D
S11309601E821D82F6018081803238F4CE01019608
S11309700E946E02982F198EDAC06894FF24F5F84D
S1130980612C6894442443F8342C0F2EFBE02F2E62
S1130990F02D55245394E52C762CAB81BC81FD01BC
S11309A0CD010B96F192E817F907E1F7962D862D04
S11309B0342D01C0822F21E0280FF601E80FF11D2C
S11309C08081813268F08F3259F08E3209F4EBC0A5
S11309D0931730F4FD01E90FF11D80839F5FEACF87
S11309E0C20ED11C952D813208F0962D1B969C9336
S11309F0CE0101960E946E02982F811198C0298120
S1130A003A812F703327220F331F22953295307F7E
S1130A103227207F322749855A856B857C8500E201
S1130A2010E0CE0149960E9467019E2D811101C0FC
S1130A30972D91117CC0898D882309F4C4C06CA1C1
S1130A4063FD11C04B815C81DE015996FA019A0164
S1130A50255F3F4F04C0E217F30709F459C09D9185
S1130A6081919817C1F380905B0190905C0109819A
S1130A701A810F5F1F4F09F49CC049855A856B8505
S1130A807C85411551056105710509F494C0C801BF
S1130A908F709927892BC9F54F5F5F4F6F4F7F4F39
S1130AA049875A876B877C878F819885009741F4A3
S1130AB0F401848195810817190708F07EC025C0C8
S1130AC0F401228130E021503109A8015295429568
S1130AD04F7045275F70452724233523232BA9F422
S1130AE00E94DC028230910508F469C0F401268179
S1130AF037818217930708F064C098878F830E9418
S1130B004B0269877A878B879C871A83098377CFFF
S1130B10FA01838581110DC064FF57C08CA990E050
S1130B20982F88272BA9822B9E838D8336CF9111F2
S1130B3034C0898D882399F18CA184FD32C08CA99D
S1130B4090E0982F88272BA9822BF501958F848F0D
S1130B5028AD8FA990E0A0E0B0E0DC0199278827B8
S1130B60B22B2DA9AC01BD01422B2EA930E0922F4E
S1130B708827A0E0B0E0842B952BA62BB72B808F81
S1130B80918FA28FB38F148A158A168A178A81E0EF
S1130B90818380E01BC085E019C0892F17C083E0E2
S1130BA015C083E013C0383009F01ACF932D322DCD
S1130BB001CF83E00BC083E009C083E007C081E07C
S1130BC005C083E003C093E0B2CF83E0E8960FB69C
S1130BD0F894DEBF0FBECDBFDF91CF911F910F916F
S1130BE0FF90EF90DF90CF90BF90AF909F908F9049
S1130BF07F906F905F904F903F902F9008954F9209
S1130C005F926F927F928F929F92AF92BF92CF9298
S1130C10DF92EF92FF920F931F93CF93DF936C01B8
S1130C207B015A01C0915B01D0915C01FA011182F0
S1130C301082209709F4D6C0898180FFD5C0672B24
S1130C4099F486FF0CC040E050E0BA0180E090E0E7
S1130C500E94C601882319F0198281E0C8C08981E5
S1130C608F7B898380E0C3C086FD0AC08C899D89FF
S1130C70AE89BF8988279E7F8C8B9D8BAE8BBF8B63
S1130C80888D998DAA8DBB8D4C895D896E897F89EC
S1130C90841B950BA60BB70BA70160E070E08417CB
S1130CA09507A607B70720F47C01892B09F49EC099
S1130CB0812C6894992491F88C899D89AE89BF8987
S1130CC09C013170232B09F044C01A811150AC01EE
S1130CD0BD01032E39E076956795579547953A956A
S1130CE0D1F7302D142399F4892B8A2B8B2B19F4EB
S1130CF08C8D9D8D04C08E8D9F8D0E94DC02823070
S1130D00910518F4198281E072C09F8F8E8F8E8DA9
S1130D109F8D0E944B02611571058105910519F49F
S1130D20198281E064C0AB01BC01410F511D611DFA
S1130D30711D48A359A36AA37BA380E090E00E949D
S1130D40C601882319F0198281E051C08981806429
S1130D5089838C899D8991709401281B390B8701A3
S1130D602E153F0508F489012801612C712CB3016B
S1130D70A201C6010E94C601882319F0198281E0EC
S1130D8036C08C899D89AE89BF89480E591E6A1E5A
S1130D907B1E4C8A5D8A6E8A7F8AC00ED11EE01A41
S1130DA0F10AF50180819181080F191F11830083D5
S1130DB08C899D899170892B79F440E050E0BA01C7
S1130DC080E090E00E94C601882319F0198281E036
S1130DD00EC089818F7B8983E114F10409F06CCF03
S1130DE080E005C085E003C084E001C080E0DF91BD
S1130DF0CF911F910F91FF90EF90DF90CF90BF9014
S1130E00AF909F908F907F906F905F904F900895D8
S1130E1084B5826084BD8AEF87BD85B5836085BD56
S1130E20EEE6F0E0808182608083789416BC0895B9
S1130E3016BC10926101109262011092630110922B
S1130E40640110925D0110925E0110925F01109294
S1130E506001089560915D0170915E0180915F0170
S1130E609091600108951F920F920FB60F92112472
S1130E708F939F93AF93BF9380915D0190915E0197
S1130E80A0915F01B09160010196A11DB11D8093F5
S1130E905D0190935E01A0935F01B0936001BF91E7
S1130EA0AF919F918F910F900FBE0F901F90189547
S1130EB01092C50087E68093C400E0ECF0E08081E6
S1130EC08D7F808388E18093C10086E08093C20097
S1130ED00895E0ECF0E0908195FFFDCF8093C6008B
S1130EE008950F931F93CF938C01FC018081882375
S1130EF051F0C0E00E946907CF5FF801EC0FF11DCB
S1130F0080818111F7CF8AE00E946907CF911F91F8
S1130F100F910895CF93DF93CDB7DEB7E7970FB660
S1130F20F894DEBF0FBECDBF2FEF83ED90E32150C9
S1130F3080409040E1F700C0000087E38DAB90E073
S1130F4080E80FB6F89480936100909361000FBE1F
S1130F500E9458070E940807CE0101960E942403AC
S1130F60882329F080E091E00E947107FFCF1FAA37
S1130F701EAA8BE191E00E9479048111FACF85E2E7
S1130F8091E00E94710700E315E70E941807AE0183
S1130F904A5C5F4F61E070E0CE01C5960E94FF0598
S1130FA0882321F086E391E00E9471070E942A07BA
S1130FB02AE0AE014B5D5F4F0E943808CE01859652
S1130FC00E9471070150110901F7AE014A5C5F4F9D
S1130FD060E070E080E090E00E94FF058DE491E025
S1130FE00E9471072FEF83ED90E3215080409040E1
S1130FF0E1F700C00000F2CFA1E21A2EAA1BBB1B2E
S1131000FD010DC0AA1FBB1FEE1FFF1FA217B307D0
S1131010E407F50720F0A21BB30BE40BF50B661FE6
S1131020771F881F991F1A9469F7609570958095AA
S113103090959B01AC01BD01CF010895A29FB00121
S1131040B39FC001A39F700D811D1124911DB29FF8
S1131050700D811D1124911D08950E941E08A59FE5
S1131060900DB49F900DA49F800D911D112408959F
S1131070BB272A3051F4992342F4BDE29095809520
S1131080709561957F4F8F4F9F4F0C944808BB27F5
S1131090FA01A62F6217710581059105330B30FB08
S11310A066F0AA27660F771F881F991FAA1FA21729
S11310B010F0A21B63953850A9F7A05DAA3308F07D
S11310C0A95DA19336F7B111B1931082CA010C94B2
S11310D06908DC01FC01672F71917723E1F73297EE
S11310E004C07C916D9370836291AE17BF07C8F3FF
S10910F00895F894FFCFFF
S11310F64572726F72206D6F756E74696E672074B7
S113110668652053442063617264004D594C4F470F
S11311162E545854004D594C4F472E545854206F52
S113112670656E6564004572726F722077726974B9
S1131136696E6720746F2066696C652E006D61693F
S10B11466E206C6F6F70000055
S9030000FC
